:1000000071EF03F00000000000EF00F000000000BE
:0A0010000000000000000000F3D71C
:0A001C00210E0D6E0D2EFED712000E
:100026000F0E0C6E470E0D6E0D2EFED70C2EFCD746
:06003600000000001200B2
:06003C00000000001200AC
:100042003ABE02D08A9601D08A863ABC02D08A94FD
:1000520001D08A843ABA02D08A9201D08A823AB80E
:1000620002D08A9001D08A802FB602D08A8801D02D
:100072008A988A8AE2DF8A9A3AB602D08A9601D0B0
:100082008A863AB402D08A9401D08A843AB202D0E3
:100092008A9201D08A823AB002D08A9001D08A80B4
:1000A2002FB602D08A8801D08A988A8AC6DF8A9AB5
:0C00B2002FA602D0B7DF01D0B0DF120093
:0C00BE000E0E0D6E0D2EFED7000012007D
:0C00CA002F9639C03AF0B8DF2F861200E4
:1000D6000D6A086A0050D8B4000C04180A6E0ABEED
:1000E6000D1E0B6A04AE02D0041E042A00AE02D016
:1000F600001E002A005004100A6E0ABE1FD00450CB
:10010600085E003600340836045008260036060E0F
:100116000C6E00340836045000B0085E00A00826B5
:1001260000360C2EF6D700A008260BB015D00DAE63
:10013600000C001E002A081E082A000C04AE09D076
:1001460000BE04D00050086E006AF1D7006A002A8B
:10015600000C001E0B2AD3D7082A0450085CD8A42A
:0E016600E6D7086A002A00AEE2D7FF0C1200AE
:10017400220E0C6E086A096A0A6A0B6A0C06D8B465
:100184001FD0D8900B320A320932083203320232BD
:1001940001320032D8A0F2D70C06D8B409D00450EA
:1001A40008260550092206500A2207500B22EAD7D6
:1001B400045008260550092206500A2207500B2233
:0201C400120027
:1001C6000B6A0A6A096A086A0E6A0334083604501A
:1001D600085E0550D8A0053C095E0650D8A0063C2E
:1001E6000A5E0750D8A0073C0B5EE86AD8A0010E4D
:1001F6000E5E0336070E0C6E0334083609360A36D1
:100206000B360E36045003A012D0085E0550D8A057
:10021600053C095E0650D8A0063C0A5E0750D8A0E9
:10022600073C0B5EE86AD8A0010E0E5E11D00826C8
:100236000550D8B0053C09260650D8B0063C0A261B
:100246000750D8B0073C0B26E86AD8B0010E0E2638
:1002560003360C2ED1D70234083609360A360B3649
:100266000E36045003A012D0085E0550D8A0053CF7
:10027600095E0650D8A0063C0A5E0750D8A0073C87
:100286000B5EE86AD8A0010E0E5E11D00826055056
:10029600D8B0053C09260650D8B0063C0A260750B9
:1002A600D8B0073C0B26E86AD8B0010E0E260236F7
:1002B600070E0C6E0234083609360A360B360E3631
:1002C600045002A012D0085E0550D8A0053C095E75
:1002D6000650D8A0063C0A5E0750D8A0073C0B5E25
:1002E600E86AD8A0010E0E5E11D008260550D8B0D7
:1002F600053C09260650D8B0063C0A260750D8B059
:10030600073C0B26E86AD8B0010E0E2602360C2EE4
:10031600D1D70134083609360A360B360E36045064
:1003260002A012D0085E0550D8A0053C095E065012
:10033600D8A0063C0A5E0750D8A0073C0B5EE86AC8
:10034600D8A0010E0E5E11D008260550D8B0053C87
:1003560009260650D8B0063C0A260750D8B0073CF6
:100366000B26E86AD8B0010E0E260136070E0C6E73
:100376000134083609360A360B360E36045001A00B
:1003860012D0085E0550D8A0053C095E0650D8A0DC
:10039600063C0A5E0750D8A0073C0B5EE86AD8A068
:1003A600010E0E5E11D008260550D8B0053C092670
:1003B6000650D8B0063C0A260750D8B0073C0B2694
:1003C600E86AD8B0010E0E2601360C2ED1D70034BD
:1003D600083609360A360B360E36045001A012D0FE
:1003E600085E0550D8A0053C095E0650D8A0063C1C
:1003F6000A5E0750D8A0073C0B5EE86AD8A0010E3B
:100406000E5E11D008260550D8B0053C09260650C8
:10041600D8B0063C0A260750D8B0073C0B26E86A37
:10042600D8B0010E0E260036070E0C6E00340836C4
:1004360009360A360B360E36045000A012D0085E76
:100446000550D8A0053C095E0650D8A0063C0A5EB9
:100456000750D8A0073C0B5EE86AD8A0010E0E5ED6
:1004660011D008260550D8B0053C09260650D8B04C
:10047600063C0A260750D8B0073C0B26E86AD8B0D7
:10048600010E0E2600360C2ED1D700B00ED0045029
:1004960008260550D8B0053C09260650D8B0063CBB
:0C04A6000A260750D8B0073C0B261200B5
:1004B200939A939893909392939493968A9A8A9804
:1004C2008A968A948A928A90ADDDACDDABDD8A820F
:1004D2008A808A8AB2DD8A9AA5DD8A8AAEDD8A9A04
:1004E200A1DD8A8AAADD8A9A9DDD8A908A8AA5DDA3
:1004F2008A9A98DD8A8AA1DD8A9A8A928A868A8A6B
:100502009CDD8A9A8FDD8A968A808A8A96DD8A9A0B
:100512008A908A8A92DD8A9A85DD8A8A8EDD8A9A13
:100522008A808A8A8ADD8A9A7DDD8A908A8A85DD36
:100532008A9A8A868A848A828A808A8A7EDD8A9ACE
:0605420071DD2F8612009E
:100548000FD0800E346E19D0C00E346E16D0940EB3
:10055800346E13D0D40E346E10D0800E346E0DD09D
:100568003450010AEEE03450020AEEE03450030A37
:10057800EEE03450040AEEE0F0D73504006E345053
:10058800002600C034F000C03AF057DD2F96386AD4
:1005980038503624E96E000E3720EA6EEE520BE032
:1005A80038503624E96E000E3720EA6EEECF39F067
:0A05B80088DD382AEDD72F861200E7
:1005C200FF0E306EFF0E316EFF0E326EFF0E336E77
:1005D200C26A251C006E0050C116070EC012C08EE2
:0405E200C2801200C1
:1005E600086A080E0C6E003408360450085ED8B04F
:0E05F60002D00826D89000360C2EF5D7120041
:10060400086A096A100E0C6E013408360936045063
:10061400085E0550D8A0053C095ED8B007D0045048
:1006240008260550D8B0053C0926D8900036013676
:060634000C2EEAD71200B3
:10063A000FD0800E346E19D0C00E346E16D0940EC0
:10064A00346E13D0D40E346E10D0800E346E0DD0AA
:10065A003450010AEEE03450020AEEE03450030A44
:10066A00EEE03450040AEEE0F0D73504006E345060
:10067A00002600C034F02F8600C03AF0DDDC2F9649
:0A068A0036C03AF0D9DC2F861200CA
:100694000900F5CFE6FF0006FBE10106F9E11200CF
:1006A400C26A251C006E0050C116070EC012C08E0F
:1006B40034C000F000360090003600900050C212A2
:1006C400C280FBDCC282C2A201D0FDD7C4CF01F03C
:0E06D400006AC3500012000E0112C290120004
:1006E2006AEC05F00E0EC112070EB41292809292BD
:1006F2008992060ED56ED59EC20ED76EF70ED66EB5
:10070200F294300ECD6ECD900B0ECF6EDC0ECE6E0F
:100712009E9095809582CCDE010E3A6E91DC0C0E95
:100722003A6E8EDC4DDF010E346E010E356E150E03
:10073200366E000E376E07DF020E346E010E356E16
:10074200300E366E79DF020E346E020E356E200EDA
:10075200366E72DF2F902F922F94346AA2DF00C080
:1007620027F001C028F0000E026E036EF40E046E34
:10077200010E056E000E066E076EFBDC0A0E046E9D
:10078200000E056E066E076EF4DCFF0E046E030E9D
:10079200056E000E066E076E15DD00C029F001C061
:1007A2002AF002C02BF003C02CF000C02DF001C0D3
:1007B2002EF00150030802E10050E80804E2E80EBE
:1007C2002D6E030E2E6E0A0E046E000E056E2DC0E7
:1007D20000F02EC001F015DF00C026F00A0E046EF4
:1007E200000E056E2DC000F02EC001F00ADF08C019
:1007F20000F009C001F000C024F02E50010802E10F
:100802002D50F40802E22F8401D02F9483A018D037
:10081200270E0C6EF50E0D6E0D2EFED70C2EFCD78C
:1008220083A00DD02FB00BD02F80236A0A0E216E29
:10083200CD90D58EC20ED76EF70ED66EF29401D041
:100842002F9083A21AD0270E0C6EF50E0D6E0D2E70
:10085200FED70C2EFCD783A20FD02FB20DD02F8241
:10086200010E236E3C0E216E226AD59ECD800B0EA8
:10087200CF6EDC0ECE6E9E9001D02F92F2A414D0D9
:10088200F294C20ED76EF70ED66E2350000A0CE118
:10089200800E000A006E800E2118005C05E221061F
:1008A2002150000AD8B4D59E9EA019D09E900B0E5E
:1008B200CF6EDC0ECE6E222A040E225C10E3226A78
:1008C2002350010A0CE1800E000A006E800E2118EE
:1008D200005C05E221062150000AD8B4CD90800EBA
:1008E2002118006E800E0A0A005C1FE3020E346EAD
:1008F200010E356E0A0E046E21C000F06BEC00F0A2
:10090200300E0024366E98DE020E346E020E356E04
:100912000A0E046E21C000F06BEC00F008C000F07B
:10092200300E0024366E88DE17D0020E346E010EB1
:10093200356E0A0E046E21C000F06BEC00F008C0A8
:1009420000F0300E0024366E77DE020E346E020E98
:10095200356E200E366E70DE800E000A006E800E3E
:100962002118005CD8B06DD0640E265C16E3020E2E
:10097200346E080E356E310E366E5EDE020E346E49
:10098200090E356E300E366E57DE020E346E0A0ECA
:10099200356E300E366E50DE3DD00A0E265C24E3F4
:1009A200020E346E080E356E200E366E45DE020ED5
:1009B200346E090E356E0A0E046E26C000F012DE89
:1009C200300E0024366E38DE020E346E0A0E356E9C
:1009D2000A0E046E26C000F005DE08C000F0300EDC
:1009E2000024366E29DE16D0020E346E080E356EE5
:1009F200200E366E21DE020E346E090E356E200E8A
:100A0200366E1ADE020E346E0A0E356E300E262453
:100A1200366E12DE020E346E0B0E356E2E0E366EF2
:100A22000BDE020E346E0C0E356E300E2424366E42
:100A320003DE020E346E0D0E356E430E366EFCDD95
:100A42002AD0020E346E080E356E200E366EF4DD9C
:100A5200020E346E090E356E200E366EEDDD020E7C
:100A6200346E0A0E356E200E366EE6DD020E346EE0
:100A72000B0E356E200E366EDFDD020E346E0C0E5E
:100A8200356E200E366ED8DD020E346E0D0E356ECA
:100A9200200E366ED1DD2FB402D0899201D0898228
:100AA200820E0C6EDD0E0D6E0D2EFED70C2EFCD7B7
:080AB2000000000052D6FFD73E
:100AD40010EE15F01A0E006E010E016EBA0EF66ECF
:0E0AE4000A0EF76E000EF86E4AEC03F01200D8
:0C0ABA0054696D6520202054656D7000AB
:010AC600002F
:010AC700002E
:010AC800002D
:010AC900002C
:010ACA0030FB
:010ACB00002A
:020ACC00000028
:040ACE000000000024
:020AD200000022
:020000040030CA
:0E000000000C1F1EFF8381FF0FC00FE00F409A
:00000001FF