:04000000BDEF03F05D
:1000080000C015F0F2A20CD0F2921D6A0A0E2F6EF3
:10001800010E306ECD90D58EC20ED76EF70ED66E0D
:10002800F0A00ED0F090010E1D6E3C0E2F6E1E6AD1
:10003800010E306ED59ECD800B0ECF6EDC0ECE6ECF
:10004800F2A417D0F294C20ED76EF70ED66E1D50DA
:10005800000A0FE1800E000A006E800E2F18005C67
:1000680008E22F04006E00C02FF02F50000AD8B409
:10007800D59E9EA020D09E900B0ECF6EDC0ECE6E2D
:100088001E50010F006E00C01EF0040E1E5C13E32C
:100098001E6A1D50010A0FE1800E000A006E800ED4
:1000A8002F18005C08E22F04006E00C02FF02F50BC
:0C00B800000AD8B4CD9015C000F0110073
:0A00C400210E0D6E0D2EFED7120066
:1000CE000F0E0C6E470E0D6E0D2EFED70C2EFCD79E
:0600DE000000000012000A
:0600E40000000000120004
:1000EA003CBE02D08C9601D08C863CBC02D08C944B
:1000FA0001D08C843CBA02D08C9201D08C823CB85C
:10010A0002D08C9001D08C8031B002D08A8801D084
:10011A008A988A8AE2DF8A9A3CB602D08C9601D003
:10012A008C863CB402D08C9401D08C843CB202D030
:10013A008C9201D08C823CB002D08C9001D08C8001
:10014A0031B002D08A8801D08A988A8AC6DF8A9A10
:0C015A0031A002D0B7DF01D0B0DF1200EE
:0C0166000E0E0D6E0D2EFED700001200D4
:0C01720031903BC03CF0B8DF318012003F
:10017E00086A080E0C6E003408360450085ED8B0BB
:0E018E0002D00826D89000360C2EF5D71200AD
:10019C000B6A0A6A096A086A0E6A03340836045044
:1001AC00085E0550D8A0053C095E0650D8A0063C58
:1001BC000A5E0750D8A0073C0B5EE86AD8A0010E77
:1001CC000E5E0336070E0C6E0334083609360A36FB
:1001DC000B360E36045003A012D0085E0550D8A082
:1001EC00053C095E0650D8A0063C0A5E0750D8A014
:1001FC00073C0B5EE86AD8A0010E0E5E11D00826F3
:10020C000550D8B0053C09260650D8B0063C0A2645
:10021C000750D8B0073C0B26E86AD8B0010E0E2662
:10022C0003360C2ED1D70234083609360A360B3673
:10023C000E36045003A012D0085E0550D8A0053C21
:10024C00095E0650D8A0063C0A5E0750D8A0073CB1
:10025C000B5EE86AD8A0010E0E5E11D00826055080
:10026C00D8B0053C09260650D8B0063C0A260750E3
:10027C00D8B0073C0B26E86AD8B0010E0E26023621
:10028C00070E0C6E0234083609360A360B360E365B
:10029C00045002A012D0085E0550D8A0053C095E9F
:1002AC000650D8A0063C0A5E0750D8A0073C0B5E4F
:1002BC00E86AD8A0010E0E5E11D008260550D8B001
:1002CC00053C09260650D8B0063C0A260750D8B083
:1002DC00073C0B26E86AD8B0010E0E2602360C2E0F
:1002EC00D1D70134083609360A360B360E3604508F
:1002FC0002A012D0085E0550D8A0053C095E06503D
:10030C00D8A0063C0A5E0750D8A0073C0B5EE86AF2
:10031C00D8A0010E0E5E11D008260550D8B0053CB1
:10032C0009260650D8B0063C0A260750D8B0073C20
:10033C000B26E86AD8B0010E0E260136070E0C6E9D
:10034C000134083609360A360B360E36045001A035
:10035C0012D0085E0550D8A0053C095E0650D8A006
:10036C00063C0A5E0750D8A0073C0B5EE86AD8A092
:10037C00010E0E5E11D008260550D8B0053C09269A
:10038C000650D8B0063C0A260750D8B0073C0B26BE
:10039C00E86AD8B0010E0E2601360C2ED1D70034E7
:1003AC00083609360A360B360E36045001A012D028
:1003BC00085E0550D8A0053C095E0650D8A0063C46
:1003CC000A5E0750D8A0073C0B5EE86AD8A0010E65
:1003DC000E5E11D008260550D8B0053C09260650F3
:1003EC00D8B0063C0A260750D8B0073C0B26E86A62
:1003FC00D8B0010E0E260036070E0C6E00340836EF
:10040C0009360A360B360E36045000A012D0085EA0
:10041C000550D8A0053C095E0650D8A0063C0A5EE3
:10042C000750D8A0073C0B5EE86AD8A0010E0E5E00
:10043C0011D008260550D8B0053C09260650D8B076
:10044C00063C0A260750D8B0073C0B26E86AD8B001
:10045C00010E0E2600360C2ED1D700B00ED0045053
:10046C0008260550D8B0053C09260650D8B0063CE5
:0C047C000A260750D8B0073C0B261200DF
:10048800086A096A100E0C6E0134083609360450E1
:10049800085E0550D8A0053C095ED8B007D00450C6
:1004A80008260550D8B0053C0926D89000360136F4
:0604B8000C2EEAD7120031
:1004BE00939A939895909592959495968A9A8A98F0
:1004CE008C968C948C928C90FBDDFADDF9DD8C820F
:1004DE008C808A8A00DE8A9AF3DD8A8AFCDD8A9A0B
:1004EE00EFDD8A8AF8DD8A9AEBDD8C908A8AF3DD5D
:1004FE008A9AE6DD8A8AEFDD8A9A8C928C868A8ABF
:10050E00EADD8A9ADDDD8C968C808A8AE4DD8A9A11
:10051E008C908A8AE0DD8A9AD3DD8A8ADCDD8A9A1B
:10052E008C808A8AD8DD8A9ACBDD8C908A8AD3DD3C
:10053E008A9A8C868C848C828C808A8ACCDD8A9A6C
:06054E00BFDD3180120048
:10055400EA0E326E060E336E360E346E000E356EB3
:10056400C26A2C1C006E0050C116070EC012C08E49
:04057400C28012002F
:100578000FD0800E366E19D0C00E366E16D0940E7F
:10058800366E13D0D40E366E10D0800E366E0DD067
:100598003650010AEEE03650020AEEE03650030A01
:1005A800EEE03650040AEEE0F0D73704006E36501D
:1005B800002600C036F000C03CF093DD31903A6A66
:1005C8003A503824E96E000E3920EA6EEE520BE0FC
:1005D8003A503824E96E000E3920EA6EEECF3BF02F
:0A05E800C4DD3A2AEDD7318012007D
:1005F2000D6A086A0050D8B4000C04180A6E0ABECC
:100602000D1E0B6A04AE02D0041E042A00AE02D0F4
:10061200001E002A005004100A6E0ABE1FD00450A9
:10062200085E003600340836045008260036060EEE
:100632000C6E00340836045000B0085E00A0082694
:1006420000360C2EF6D700A008260BB015D00DAE42
:10065200000C001E002A081E082A000C04AE09D055
:1006620000BE04D00050086E006AF1D7006A002A6A
:10067200000C001E0B2AD3D7082A0450085CD8A409
:0E068200E6D7086A002A00AEE2D7FF0C12008D
:100690000FD0800E366E19D0C00E366E16D0940E66
:1006A000366E13D0D40E366E10D0800E366E0DD04E
:1006B0003650010AEEE03650020AEEE03650030AE8
:1006C000EEE03650040AEEE0F0D73704006E365004
:1006D000002600C036F0318000C03CF006DD3190CD
:0A06E00038C03CF002DD318012004A
:1006EA00830EC21636C000F0003600900036009025
:1006FA000050C21233DDC282C2A201D0FDD7C4CFDC
:0E070A0001F0006AC3500012000E011212002E
:100718000900F5CFE6FF0006FBE10106F9E112004A
:10072800220E0C6E086A096A0A6A0B6A0C06D8B4AB
:100738001FD0D8900B320A32093208320332023203
:1007480001320032D8A0F2D70C06D8B409D0045030
:1007580008260550092206500A2207500B22EAD71C
:10076800045008260550092206500A2207500B2279
:0207780012006D
:10077A0061EC05F0EADE3B0EC16E070EB412928000
:10078A00929292849286899293809382060ED56E73
:10079A00D59EC20ED76EF70ED66E300ECD6ECD90A8
:1007AA000B0ECF6EDC0ECE6EF2949E90F292F0900B
:1007BA00F18CF18AF288F086F28A9D80F28CF28EB0
:1007CA0079DE010E3C6E8CDC0C0E3C6E89DC010E6F
:1007DA00366E010E376E200E386E000E396EC7DE89
:1007EA003192306A3050010AD8A44CD1800E000AE6
:1007FA00006E800E2F18005CD8B005D1366A70DF03
:10080A0000C02DF001C02EF0000E026E036EF40E31
:10081A00046E010E056E000E066E076E80DF0A0E6C
:10082A00046E000E056E066E076E79DFFF0E046E0B
:10083A00030E056E000E066E076EABDC00C018F0E4
:10084A0001C019F002C01AF003C01BF000C016F074
:10085A0001C017F00150030802E10050E80804E261
:10086A00E80E166E030E176E0A0E046E000E056E63
:10087A0016C000F017C001F002DE00C01FF00A0E19
:10088A00046E000E056E16C000F017C001F0F7DD09
:10089A0008C000F009C001F000C01CF0020E175C8D
:1008AA0002E1580E165CD8A031821750030802E103
:1008BA0016502008D8A03192640E1F5C16E3020E6F
:1008CA00366E080E376E310E386EDDDE020E366E6B
:1008DA00090E376E300E386ED6DE020E366E0A0EEE
:1008EA00376E300E386ECFDE3DD00A0E1F5C24E321
:1008FA00020E366E080E376E200E386EC4DE020EF9
:10090A00366E090E376E0A0E046E1FC000F032DC16
:10091A00300E0024386EB7DE020E366E0A0E376EBF
:10092A000A0E046E1FC000F025DC08C000F0300E6D
:10093A000024386EA8DE16D0020E366E080E376E08
:10094A00200E386EA0DE020E366E090E376E200EAD
:10095A00386E99DE020E366E0A0E376E300E1F247E
:10096A00386E91DE020E366E0B0E376E2E0E386E14
:10097A008ADE020E366E0C0E376E300E1C24386E6E
:10098A0082DE020E366E0D0E376E430E386E7BDE39
:10099A00800E2F18006E800E0A0A005C1DE3020EFC
:1009AA00366E010E376E0A0E046E2FC000F01CDE82
:1009BA00300E0024386E67DE020E366E020E376E77
:1009CA000A0E046E2FC000F00FDE08C000F0300ED1
:1009DA000024386E58DE16D0020E366E010E376EBF
:1009EA000A0E046E2FC000F0FFDD08C000F0300EC2
:1009FA000024386E48DE020E366E020E376E200E66
:100A0A00386E41DE3AD0020E366E010E376E300E67
:100A1A00386E39DE020E366E020E376E200E386ED2
:100A2A0032DE020E366E080E376E200E386E2BDE60
:100A3A00020E366E090E376E200E386E24DE020E56
:100A4A00366E0A0E376E200E386E1DDE020E366EB8
:100A5A000B0E376E200E386E16DE020E366E0C0E38
:100A6A00376E200E386E0FDE020E366E0D0E376EA2
:100A7A00200E386E08DE3192306A31B202D0899285
:100A8A0001D08982820E0C6EDD0E0D6E0D2EFED700
:0C0A9A000C2EFCD700000000A5D6FFD7F2
:100AC20010EE16F01B0E006E010E016EA60EF66EF3
:0E0AD2000A0EF76E000EF86E8CEC03F01200A8
:020AA60000004E
:040AA800000000004A
:010AAC000049
:010AAD000048
:010AAE000047
:010AAF000046
:0C0AB00054696D6520202054656D7000B5
:010ABC003009
:020ABD00000037
:010ABF000036
:010AC0000035
:020000040030CA
:0E000000000C1F1EFF8381FF0FC00FE00F409A
:00000001FF